{
  "_format": "hh-sol-artifact-1",
  "contractName": "UserContact",
  "sourceName": "contracts/UserContact.sol",
  "abi": [
    {
      "inputs": [
        {
          "internalType": "string",
          "name": "_fullname",
          "type": "string"
        },
        {
          "internalType": "string",
          "name": "_phone",
          "type": "string"
        },
        {
          "internalType": "string",
          "name": "_email",
          "type": "string"
        },
        {
          "internalType": "string",
          "name": "_quote",
          "type": "string"
        }
      ],
      "name": "addPerson",
      "outputs": [],
      "stateMutability": "nonpayable",
      "type": "function"
    },
    {
      "inputs": [
        {
          "internalType": "string",
          "name": "",
          "type": "string"
        }
      ],
      "name": "emailToMessage",
      "outputs": [
        {
          "internalType": "string",
          "name": "",
          "type": "string"
        }
      ],
      "stateMutability": "view",
      "type": "function"
    },
    {
      "inputs": [
        {
          "internalType": "uint256",
          "name": "",
          "type": "uint256"
        }
      ],
      "name": "listOfPersons",
      "outputs": [
        {
          "internalType": "string",
          "name": "fullName",
          "type": "string"
        },
        {
          "internalType": "string",
          "name": "phone",
          "type": "string"
        },
        {
          "internalType": "string",
          "name": "email",
          "type": "string"
        },
        {
          "internalType": "string",
          "name": "quote",
          "type": "string"
        }
      ],
      "stateMutability": "view",
      "type": "function"
    },
    {
      "inputs": [],
      "name": "retrieve",
      "outputs": [
        {
          "components": [
            {
              "internalType": "string",
              "name": "fullName",
              "type": "string"
            },
            {
              "internalType": "string",
              "name": "phone",
              "type": "string"
            },
            {
              "internalType": "string",
              "name": "email",
              "type": "string"
            },
            {
              "internalType": "string",
              "name": "quote",
              "type": "string"
            }
          ],
          "internalType": "struct UserContact.Persons[]",
          "name": "",
          "type": "tuple[]"
        }
      ],
      "stateMutability": "view",
      "type": "function"
    }
  ],
  "bytecode": "0x608060405234801561001057600080fd5b5061106f806100206000396000f3fe608060405234801561001057600080fd5b506004361061004c5760003560e01c806319fd39a0146100515780632e64cec114610081578063510f17c51461009f57806360a8940e146100d2575b600080fd5b61006b600480360381019061006691906108dd565b6100ee565b60405161007891906109a5565b60405180910390f35b6100896101a4565b6040516100969190610b4b565b60405180910390f35b6100b960048036038101906100b49190610ba3565b61044b565b6040516100c99493929190610bd0565b60405180910390f35b6100ec60048036038101906100e79190610c31565b6106ab565b005b600181805160208101820180518482526020830160208501208183528095505050505050600091509050805461012390610d37565b80601f016020809104026020016040519081016040528092919081815260200182805461014f90610d37565b801561019c5780601f106101715761010080835404028352916020019161019c565b820191906000526020600020905b81548152906001019060200180831161017f57829003601f168201915b505050505081565b60606000805480602002602001604051908101604052809291908181526020016000905b8282101561044257838290600052602060002090600402016040518060800160405290816000820180546101fb90610d37565b80601f016020809104026020016040519081016040528092919081815260200182805461022790610d37565b80156102745780601f1061024957610100808354040283529160200191610274565b820191906000526020600020905b81548152906001019060200180831161025757829003601f168201915b5050505050815260200160018201805461028d90610d37565b80601f01602080910402602001604051908101604052809291908181526020018280546102b990610d37565b80156103065780601f106102db57610100808354040283529160200191610306565b820191906000526020600020905b8154815290600101906020018083116102e957829003601f168201915b5050505050815260200160028201805461031f90610d37565b80601f016020809104026020016040519081016040528092919081815260200182805461034b90610d37565b80156103985780601f1061036d57610100808354040283529160200191610398565b820191906000526020600020905b81548152906001019060200180831161037b57829003601f168201915b505050505081526020016003820180546103b190610d37565b80601f01602080910402602001604051908101604052809291908181526020018280546103dd90610d37565b801561042a5780601f106103ff5761010080835404028352916020019161042a565b820191906000526020600020905b81548152906001019060200180831161040d57829003601f168201915b505050505081525050815260200190600101906101c8565b50505050905090565b6000818154811061045b57600080fd5b906000526020600020906004020160009150905080600001805461047e90610d37565b80601f01602080910402602001604051908101604052809291908181526020018280546104aa90610d37565b80156104f75780601f106104cc576101008083540402835291602001916104f7565b820191906000526020600020905b8154815290600101906020018083116104da57829003601f168201915b50505050509080600101805461050c90610d37565b80601f016020809104026020016040519081016040528092919081815260200182805461053890610d37565b80156105855780601f1061055a57610100808354040283529160200191610585565b820191906000526020600020905b81548152906001019060200180831161056857829003601f168201915b50505050509080600201805461059a90610d37565b80601f01602080910402602001604051908101604052809291908181526020018280546105c690610d37565b80156106135780601f106105e857610100808354040283529160200191610613565b820191906000526020600020905b8154815290600101906020018083116105f657829003601f168201915b50505050509080600301805461062890610d37565b80601f016020809104026020016040519081016040528092919081815260200182805461065490610d37565b80156106a15780601f10610676576101008083540402835291602001916106a1565b820191906000526020600020905b81548152906001019060200180831161068457829003601f168201915b5050505050905084565b60006040518060800160405280868152602001858152602001848152602001838152509080600181540180825580915050600190039060005260206000209060040201600090919091909150600082015181600001908161070c9190610f14565b5060208201518160010190816107229190610f14565b5060408201518160020190816107389190610f14565b50606082015181600301908161074e9190610f14565b505050806001836040516107629190611022565b9081526020016040518091039020908161077c9190610f14565b5050505050565b6000604051905090565b600080fd5b600080fd5b600080fd5b600080fd5b6000601f19601f8301169050919050565b7f4e487b7100000000000000000000000000000000000000000000000000000000600052604160045260246000fd5b6107ea826107a1565b810181811067ffffffffffffffff82111715610809576108086107b2565b5b80604052505050565b600061081c610783565b905061082882826107e1565b919050565b600067ffffffffffffffff821115610848576108476107b2565b5b610851826107a1565b9050602081019050919050565b82818337600083830152505050565b600061088061087b8461082d565b610812565b90508281526020810184848401111561089c5761089b61079c565b5b6108a784828561085e565b509392505050565b600082601f8301126108c4576108c3610797565b5b81356108d484826020860161086d565b91505092915050565b6000602082840312156108f3576108f261078d565b5b600082013567ffffffffffffffff81111561091157610910610792565b5b61091d848285016108af565b91505092915050565b600081519050919050565b600082825260208201905092915050565b60005b83811015610960578082015181840152602081019050610945565b60008484015250505050565b600061097782610926565b6109818185610931565b9350610991818560208601610942565b61099a816107a1565b840191505092915050565b600060208201905081810360008301526109bf818461096c565b905092915050565b600081519050919050565b600082825260208201905092915050565b6000819050602082019050919050565b600082825260208201905092915050565b6000610a0f82610926565b610a1981856109f3565b9350610a29818560208601610942565b610a32816107a1565b840191505092915050565b60006080830160008301518482036000860152610a5a8282610a04565b91505060208301518482036020860152610a748282610a04565b91505060408301518482036040860152610a8e8282610a04565b91505060608301518482036060860152610aa88282610a04565b9150508091505092915050565b6000610ac18383610a3d565b905092915050565b6000602082019050919050565b6000610ae1826109c7565b610aeb81856109d2565b935083602082028501610afd856109e3565b8060005b85811015610b395784840389528151610b1a8582610ab5565b9450610b2583610ac9565b925060208a01995050600181019050610b01565b50829750879550505050505092915050565b60006020820190508181036000830152610b658184610ad6565b905092915050565b6000819050919050565b610b8081610b6d565b8114610b8b57600080fd5b50565b600081359050610b9d81610b77565b92915050565b600060208284031215610bb957610bb861078d565b5b6000610bc784828501610b8e565b91505092915050565b60006080820190508181036000830152610bea818761096c565b90508181036020830152610bfe818661096c565b90508181036040830152610c12818561096c565b90508181036060830152610c26818461096c565b905095945050505050565b60008060008060808587031215610c4b57610c4a61078d565b5b600085013567ffffffffffffffff811115610c6957610c68610792565b5b610c75878288016108af565b945050602085013567ffffffffffffffff811115610c9657610c95610792565b5b610ca2878288016108af565b935050604085013567ffffffffffffffff811115610cc357610cc2610792565b5b610ccf878288016108af565b925050606085013567ffffffffffffffff811115610cf057610cef610792565b5b610cfc878288016108af565b91505092959194509250565b7f4e487b7100000000000000000000000000000000000000000000000000000000600052602260045260246000fd5b60006002820490506001821680610d4f57607f821691505b602082108103610d6257610d61610d08565b5b50919050565b60008190508160005260206000209050919050565b60006020601f8301049050919050565b600082821b905092915050565b600060088302610dca7fffffffffffffffffffffffffffffffffffffffffffffffffffffffffffffffff82610d8d565b610dd48683610d8d565b95508019841693508086168417925050509392505050565b6000819050919050565b6000610e11610e0c610e0784610b6d565b610dec565b610b6d565b9050919050565b6000819050919050565b610e2b83610df6565b610e3f610e3782610e18565b848454610d9a565b825550505050565b600090565b610e54610e47565b610e5f818484610e22565b505050565b5b81811015610e8357610e78600082610e4c565b600181019050610e65565b5050565b601f821115610ec857610e9981610d68565b610ea284610d7d565b81016020851015610eb1578190505b610ec5610ebd85610d7d565b830182610e64565b50505b505050565b600082821c905092915050565b6000610eeb60001984600802610ecd565b1980831691505092915050565b6000610f048383610eda565b9150826002028217905092915050565b610f1d82610926565b67ffffffffffffffff811115610f3657610f356107b2565b5b610f408254610d37565b610f4b828285610e87565b600060209050601f831160018114610f7e5760008415610f6c578287015190505b610f768582610ef8565b865550610fde565b601f198416610f8c86610d68565b60005b82811015610fb457848901518255600182019150602085019450602081019050610f8f565b86831015610fd15784890151610fcd601f891682610eda565b8355505b6001600288020188555050505b505050505050565b600081905092915050565b6000610ffc82610926565b6110068185610fe6565b9350611016818560208601610942565b80840191505092915050565b600061102e8284610ff1565b91508190509291505056fea2646970667358221220383669904a7cabbe055b9a933142c1ef79687e364dd54af6bf729b27fed5b26e64736f6c63430008180033",
  "linkReferences": {},
  "deployedLinkReferences": {}
}